:02000000FE2FD1
:100EBC0083160711871007109101831207108714EE
:100ECC0007112930F7009630F6007F30F500F50B4E
:100EDC006D2FF60B6D2FF70B6D2FF0010F309B273D
:100EEC00FF30F00009309B270330F0000A309B27BD
:100EFC000730F0000B309B27F001F00A0C309B27D9
:100F0C008630F00001309B278530F00002309B27A3
:100F1C008430F00003309B278330F00004309B2793
:100F2C008230F00005309B279A2FF2008312871035
:100F3C00F301F401831207102130F100F10BA42FFF
:100F4C00F21FAB2F83120715AD2F8312071121301F
:100F5C00F100F10BAF2F831207142130F100F10BCC
:100F6C00B52F7208F1007107F2000130F307031876
:100F7C00F40A0030F4077408803AFF0080307F02D6
:100F8C00031DCA2F08307302031CA02FF301F401B8
:100F9C00831207102130F100F10BD22FF01FD92F43
:100FAC0083120715DB2F831207112130F100F10B8F
:100FBC00DD2F831207142130F100F10BE32F7008A1
:100FCC00F1007107F0000130F3070318F40A003048
:100FDC00F4077408803AFF0080307F02031DF82F5D
:100FEC0008307302031CCE2F8312071087140800DD
:040FFC0083015E2FE0
:02400E00D43CA0
:00000001FF
