:02000000FE2FD1
:100DD8007708F0007508B6270800F0010F30B6272D
:100DE800FF30F0000930B6270330F0000A30B6278C
:100DF8000730F0000B30B627F001F00A0C30B627A8
:100E08000800700871040319322FF401F40AF11B69
:100E1800192F01300310F00DF10DFF3E031D0E2FA9
:100E28000130FF007F08F4070B2F71087302031DC0
:100E38001F2F70087202031C272F7008F202710816
:100E4800031CF303F30201300310F10CF00CFF3E16
:100E5800031D282F0130F402031D192F7308F10018
:100E68007208F0000800F401F50170087104031914
:100E78006E2FF601F60AF11B4D2F01300310F00D0D
:100E8800F10DFF3E031D422F0130FF007F08F607DA
:100E98003F2F01300310F40DF50DFF3E031D4E2FBB
:100EA80071087302031D5A2F70087202031C632F06
:100EB8007008F2027108031CF303F3027414013082
:100EC8000310F10CF00CFF3E031D642F0130F602F5
:100ED800031D4D2F7508F1007408F00008008316F3
:100EE8000711871007109101831207108714071143
:100EF800F126A001A1012108A3002008A200A40155
:100F0800A40A2408F900FA017908F5007A08F6001D
:100F18000A30F0000030F1002308F3002208F20044
:100F280005277108F8007008F700EC260A30F00071
:100F38000030F1002308F3002208F2003727710877
:100F4800A3007008A2000130FF007F08A407093041
:100F58002402031C852F0130A0070318A10A0030C2
:100F6800A1077F2FF2008710F301F4018312071005
:100F7800F21FC12F83120715C32F831207110714FD
:100F88007208F1007107F2000130F3070318F40A40
:100F98000030F4077408803AFF0080307F02031D98
:100FA800D72F08307302031CBA2FF301F401831200
:100FB8000710F01FE22F83120715E42F8312071181
:100FC80007147008F1007107F0000130F3070318E7
:100FD800F40A0030F4077408803AFF0080307F027A
:100FE800031DF82F08307302031CDB2F8312071030
:080FF800871408008301732F28
:02400E00D43CA0
:00000001FF
