:02000000FE2FD1
:100DDA007708F0007508B6270800F0010F30B6272B
:100DEA00FF30F0000930B6270330F0000A30B6278A
:100DFA000730F0000B30B627F001F00A0C30B627A6
:100E0A000800700871040319332FF401F40AF11B66
:100E1A001A2F01300310F00DF10DFF3E031D0F2FA5
:100E2A000130FF007F08F4070C2F71087302031DBD
:100E3A00202F70087202031C282F7008F202710812
:100E4A00031CF303F30201300310F10CF00CFF3E14
:100E5A00031D292F0130F402031D1A2F7308F10014
:100E6A007208F0000800F401F50170087104031912
:100E7A006F2FF601F60AF11B4E2F01300310F00D09
:100E8A00F10DFF3E031D432F0130FF007F08F607D7
:100E9A00402F01300310F40DF50DFF3E031D4F2FB7
:100EAA0071087302031D5B2F70087202031C642F02
:100EBA007008F2027108031CF303F3027414013080
:100ECA000310F10CF00CFF3E031D652F0130F602F2
:100EDA00031D4E2F7508F1007408F00008008316F0
:100EEA000711871007109101831207108714071141
:100EFA00F226A001A1012108A3002008A200A40152
:100F0A002408F900FA017908F5007A08F6000A308F
:100F1A00F0000030F1002308F3002208F20006274F
:100F2A007108F8007008F700ED260A30F00000306A
:100F3A00F1002308F3002208F20038277108A30001
:100F4A007008A2000130FF007F08A40708302402BD
:100F5A00031C852F0130A0070318A10A0030A1073E
:100F6A00802FF2008710F301F40183120710F21F99
:100F7A00C12F83120715C32F831207110714720892
:100F8A00F1007107F2000130F3070318F40A003088
:100F9A00F4077408803AFF0080307F02031DD72FC0
:100FAA0008307302031CBA2FF301F40183120710ED
:100FBA00F01FE22F83120715E42F8312071107147B
:100FCA007008F1007107F0000130F3070318F40A02
:100FDA000030F4077408803AFF0080307F02031D56
:100FEA00F82F08307302031CDB2F831207108714B3
:060FFA0008008301742FC2
:02400E00D43CA0
:00000001FF
